:0300000002092FC3
:0C092F00787FE4F6D8FD75812B0208816A
:1008FE00E4FEEEC39F50127D0DEDD39400748094F0
:09090E008040031D80F30E80E916
:0109170022BD
:10088100E4F589758E80758A80758CFED28CD2A92B
:10089100D2B9D2AF120918E5094508600AE4F50892
:1008A100F5090529850E18E50B450A60EAE52A6573
:0308B1002960E4D7
:1008B400752B0AE4F50AF50BE51824BE600E1460E6
:1008C4000F14601F24037028D2B38019C2B380159B
:1008D40030B30375124120B303751242AF2B1208D3
:1008E400FE800AB2B3AF2B1208FE8518127518EEFB
:0808F400052A751300751401BB
:0208FC00809AE0
:03000B00020800E8
:10080000C0E0C0D0E510450F602B1516E51670341A
:100810007516031511E511700E850C0EF50FF51008
:10082000F508750901801DE50CC313F50C30B014F3
:10083000430C80800F20B00C750F007510017516E9
:10084000047511091517E5177032751703E514457E
:10085000136029E515700AC2B185120D751509805E
:100860001BE50DC313F50D1515E515700DD2B1F58A
:1008700013F514F50A750B01800292B1D0D0D0E0C7
:010880003245
:10091800E4F513F514F50FF510F50A750B01F50854
:07092800F509F517F5162291
:00000001FF
